{
  "abi": [
    {
      "inputs": [],
      "name": "getValue",
      "outputs": [
        {
          "internalType": "uint256",
          "name": "",
          "type": "uint256"
        }
      ],
      "stateMutability": "view",
      "type": "function"
    }
  ],
  "bytecode": "6080604052348015600f57600080fd5b50607880601d6000396000f3fe6080604052348015600f57600080fd5b506004361060285760003560e01c80632096525514602d575b600080fd5b60005460405190815260200160405180910390f3fea2646970667358221220ab06e8679e682fce1ccc0acb5ced557048e55061097b24fc5b954b633b5d48b964736f6c63430008150033",
  "bytecodeSha1": "fa4d827df873a160606318bac686e15aa25b79e5",
  "compiler": {
    "evm_version": "istanbul",
    "optimizer": {
      "enabled": true,
      "runs": 200
    },
    "version": "0.8.21+commit.d9974bed"
  },
  "contractName": "BoxV1",
  "language": "Solidity",
  "natspec": {
    "kind": "dev",
    "methods": {},
    "version": 1
  },
  "opcodes": "PUSH1 0x80 PUSH1 0x40 MSTORE CALLVALUE DUP1 ISZERO PUSH1 0xF JUMPI PUSH1 0x0 DUP1 REVERT JUMPDEST POP PUSH1 0x4 CALLDATASIZE LT PUSH1 0x28 JUMPI PUSH1 0x0 CALLDATALOAD PUSH1 0xE0 SHR DUP1 PUSH4 0x20965255 EQ PUSH1 0x2D JUMPI JUMPDEST PUSH1 0x0 DUP1 REVERT JUMPDEST PUSH1 0x0 SLOAD PUSH1 0x40 MLOAD SWAP1 DUP2 MSTORE PUSH1 0x20 ADD PUSH1 0x40 MLOAD DUP1 SWAP2 SUB SWAP1 RETURN INVALID LOG2 PUSH5 0x6970667358 0x22 SLT KECCAK256 0xAB MOD 0xE8 PUSH8 0x9E682FCE1CCC0ACB 0x5C 0xED SSTORE PUSH17 0x48E55061097B24FC5B954B633B5D48B964 PUSH20 0x6F6C634300081500330000000000000000000000 ",
  "sha1": "844c5f84251f02377ffc7106e8877913036f1432",
  "source": "//SPDX-License-Identifier: MIT\npragma solidity ^0.8.0;\n\ncontract BoxV1 {\n    uint256 private value;\n\n    function getValue() public view returns (uint256) {\n        return value;\n    }\n}\n",
  "sourcePath": "contracts/BoxV1.sol",
  "type": "contract"
}